:020000040800F2
:1000000060080020450100086F34000885250008BD
:100010006D340008650700085D3700080000000027
:100020000000000000000000000000007334000821
:10003000F50700080000000071340008753400085E
:100040005F0100085F0100085F0100085F01000810
:100050005F0100085F0100085F0100085F01000800
:100060005F0100085F0100085F0100085F010008F0
:100070005F0100085F010008DD070008E9070008CC
:100080005F0100085F0100085F0100085F010008D0
:100090005F0100085F0100085F0100085F010008C0
:1000A0005F0100085F0100085F0100085F010008B0
:1000B0005F0100085F0100085F0100085F010008A0
:1000C0005F01000831270008252700085F010008AC
:1000D0005F010008513700085F0100085F01000858
:1000E0005F0100085F0100085F0100085F01000870
:1000F0005F0100085F0100085F0100085F01000860
:100100005F0100085F0100085F0100085F0100084F
:100110005F0100085F0100085F0100085F0100083F
:100120005F0100085F0100085F0100085F0100082F
:10013000DFF80CD000F086FA00480047F1430008D1
:10014000600800200648804706480047FEE7FEE7B3
:10015000FEE7FEE7FEE7FEE7FEE7FEE7FEE7FEE777
:10016000C534000831010008202A04DB203A21FAB6
:1001700002F00021704721FA02F3D040C2F12002C0
:100180009140084319467047D2B201E000F8012BB4
:10019000491EFBD270470022F6E710B513460A4607
:1001A00004461946FFF7F0FF204610BD421C10F828
:1001B000011B0029FBD1801A7047034611F8012B5F
:1001C00000F8012B002AF9D11846704770B50F4D81
:1001D00000B92868002412E00A4602E09E4203D0DB
:1001E000521C1378002BF9D1DAB2224305D02BB17F
:1001F00024B1002100F8011B04E00446401C0678ED
:10020000002EE9D12860204670BD00007C0000204F
:100210002DE9F0410E460546002400E0641C285DEF
:1002200000F052F80746305D00F04EF8381A02D15F
:10023000295D0029F2D1BDE8F08130B50B460146B9
:1002400000202022012409E021FA02F59D4205D375
:1002500003FA02F5491B04FA02F52844151EA2F11F
:100260000102F1DC30BD2DE9F05F05460020924629
:100270009B4688460646814640241BE02846414668
:1002800047462246FFF770FF53465A46C01A91412F
:1002900010D311461846224600F0E6F92D1A67EBF6
:1002A00001084F4622460120002100F0DDF917EB3E
:1002B00000094E41201EA4F10104DFDC484631460E
:1002C0002A464346BDE8F09FA0F14101192900D814
:1002D000203070472DE9FE4F804681EA0300C00FB1
:1002E0000C46009021F0004123F00045B8EB0200DD
:1002F000A94105D24046214690461C460B4602467F
:1003000023F00040104347D0270DC7F30A00C3F382
:100310000A510290401A019040286BDAC3F313008F
:1003200040F4801B0098924620B10023D2EB030AD0
:1003300063EB0B0B01985946C0F14002504600F0A8
:1003400093F906460D4650465946019A00F09BF92E
:1003500010EB08006141002487EA115284EAE77338
:100360001A4340D0009A62B3019A012A4FEA075219
:1003700015DC001B61EB02014FF0004202EA07525C
:10038000CDE90042001C41F5801132462B4600F0B9
:100390009BF903B0BDE8F08F40462146F9E7001B0A
:1003A00061EB0201001C41F5801300185B4120182D
:1003B000A2F5001747EB030140EAD570B6196D416D
:1003C00011E06D084FEA360645EAC0754FEA07525C
:1003D000001B61EB0201001C41F5801149084FEA46
:1003E00030000019514132462B4603B0BDE8F04FB2
:1003F00000F05BB90098012240000023D0EB02021C
:1004000063EBE073009821464FEAE074B8EB00001C
:1004100061EB0401E9E783F000435BE781F0004111
:1004200058E72DE9FE4F81EA030404F0004421F06F
:10043000004100944FF0000B23F0004350EA010408
:100440005ED052EA03045BD0C3F30A54C1F30A55E9
:100450002C44A4F2F3340194A0FB0254C1F3130121
:1004600041F48011C3F3130343F4801301FB0244EE
:1004700000FB034E840A970A44EA815447EA8357F3
:10048000A4FB076802958D0A05FB07854FEA932CAC
:1004900004FB0C542705029D4FEA065847EA16371D
:1004A000B5EB08056EEB070C870E920E47EA811735
:1004B00042EA8312A7FB0201B6EB0B0164EB0004D6
:1004C0002B0D43EA0C335E1844EB1C50DA465146C0
:1004D000E7FB0201C5F313044FEA0B3343EA14535D
:1004E0004FEA0432019C43EA0603A4F10C0402948F
:1004F000009CCDE900B400F0E7F803B0BDE8F08F50
:1005000000200146F9E72DE9F04D81EA030404F0EB
:10051000004B21F0004514464FF0000A23F0004143
:1005200050EA050220D054EA01021DD0C5F30A5753
:100530000246C5F31303C1F31300C1F30A5640F496
:10054000801543F48013A7EB0608101BD64608F26B
:10055000FD3873EB050002D308F1010801E09218A1
:100560005B41B8F1000F03DA00200146BDE8F08DD1
:1005700000204FF48011064684460EE0171B73EBF3
:10058000050705D3121B63EB050306434CEA010C78
:1005900049084FEA300092185B4150EA0107EDD15B
:1005A00052EA030012D082EA040083EA05010843FC
:1005B00005D0101BAB4106D20122002306E0002229
:1005C0004FF0004302E06FF0010253101AEB0600F7
:1005D0004CEB085110EB0A0041EB0B01BDE8F04D6C
:1005E00000F063B8C1F30A52C1F3130140F2FF33C4
:1005F00041F480119A4202DA00200146704740F22D
:1006000033439A42A2F2334202DC5242FFF7ACBDBE
:1006100000F02AB830B5041E71F1000404DB4FF07D
:100620000044404264EB0101141E73F1000405DB39
:100630001C464FF00043524263EB0403994208BF4B
:10064000904230BD064C074D06E0E06840F00103E3
:1006500094E8070098471034AC42F6D3FFF76CFDDE
:100660004C4A00086C4A0008202A04DB203A00FAB1
:1006700002F1002070479140C2F1200320FA03F3F9
:10068000194390407047202A06DBCB17203A41FAE5
:1006900002F043EAE07306E041FA02F3D040C2F10F
:1006A0002002914008431946704710B5141E73F19B
:1006B000000408DA401C41F1000192185B411A4322
:1006C00001D120F0010010BD2DE9F04D92469B466E
:1006D00011B1B1FA81F202E0B0FA80F22032904614
:1006E000FFF7C2FF04460F4640EA0A0041EA0B0149
:1006F00053465A46084313D0114653EA010019D015
:10070000C8F140025046FFF72FFD05460E46504601
:1007100059464246FFF7A8FF084305D0012004E0F0
:1007200020463946BDE8F08D0020054346EAE076D4
:100730002C4337430A986305E40AA0EB0800002223
:10074000FD0A44EA47540A3002D500200146E9E791
:10075000010510196941DDE9084500196941BDE845
:10076000F04DA2E7FEE700002DE9F0410746002624
:10077000194C1FE0A868804730B117496FF47A70B0
:1007800008394860F5200FE02869804710B1286AD1
:10079000804758B1002502E0406980476D1C54F83D
:1007A00025000028F8D1F220387007E0A8698047BA
:1007B00038B1761C54F82650002DDBD13046BDE808
:1007C000F081002502E0C06980476D1C54F82500C7
:1007D0000028F8D1F120E7E764000020014800F08C
:1007E0007FB90000E0030020014800F079B9000063
:1007F0009C0300207047704730B5B3F5804F05D09B
:100800006FF0704140F82210002030BD8C690B68F9
:100810008D6823434C688989240144EA05242343D5
:1008200043EA014150F82230014C23401943E9E7E3
:100830000000F0CF10B50A6850F8223023F0010311
:1008400040F822308C68082C23D000234A682243C9
:10085000CC681C430B6922431A434B691A438B69CA
:100860001A43CB691A430B6A1A434B6A1A438B6AC1
:100870001A43CB6A1A430B6B1A434B6B09681A4332
:1008800050F82130044C23401A4340F82120002026
:1008900010BD4023DAE700008000F0FF30B5D1E959
:1008A000003443EA04138C688D89240244EA054429
:1008B00023430C8A094D00EB820005EB04542343CB
:1008C0000C7D6D0105EB0464896923430B4341688A
:1008D00001F040410B434360002030BD0000F0FFB9
:1008E00070B51C4C98202070062060714020A071CB
:1008F0005520E07169202072607840B10025E570D4
:100900002571204601F090FE48B1FF2070BD1148CE
:1009100001F03AFE0028F8D10120607017E00D4880
:1009200001F0D8FE08B10CA004E00A4801F0AAFECC
:1009300018B113A002F014FFE7E70648E178093088
:10094000417021794171A078012800D065700020A4
:1009500070BD0000240400204350555F315F4C4DB2
:1009600039353233355F526561645F52454D5F54AE
:10097000656D70206572726F72210D0A00000000B3
:100980004350555F315F4C4D39353233355F5265D9
:1009900061645F4C4F435F54656D70206572726F88
:1009A00072210D0A000000002DE9F05F90F821107F
:1009B0000024022903D004218163012485E0016819
:1009C0000A6822F00E020A6001680A6822F0010239
:1009D0000A603F4E3E4FB215DFF8F4C0DFF8F090EA
:1009E000DFF8ECA0DFF8E8B0DFF8E4E00168783F7A
:1009F00013011502ACF1640CA9F15009AAF13C0AEB
:100A0000ABF1280BAEF1140E4FF48018B14227D988
:100A1000B9420ED0614512D049451DD0514518D07C
:100A2000594518D0714501D1424615E0294EB142D1
:100A300001D1012210E0274E1436B14201D110221B
:100A40000AE0244E2836B14206D0224A3C32914276
:100A500001D11A4600E02A461E49091F0A602BE010
:100A6000B94213D0614517D0494522D051451DD018
:100A700059451DD0714501D142461AE0B14202D11B
:100A80004FF0807215E0134EB14201D1012210E007
:100A9000104E1436B14201D110220AE00D4E283614
:100AA000B14206D00B4A3C32914201D11A4600E0D5
:100AB0002A46074980394A60012180F82110002127
:100AC00080F82010416B01B188472046BDE8F09FB7
:100AD000800002400804024090F8210070470000A6
:100AE0002DE9F05FC16B0A6801680B68046C4FF078
:100AF000040808FA04F8844D844E854FDFF814C2C8
:100B0000DFF81492DFF814A2DFF814B2DFF814E271
:100B100018EA020F65D05FEA437862D50A68920648
:100B200003D40A6822F004020A60DFF8F0814FF46F
:100B30008062016808F1140813011402414524D9A8
:100B4000A9420DD0B1420FD0B9421AD0614515D09B
:100B5000494515D0514501D1120312E0594501D143
:100B600004220EE0714501D140220AE06D4D14359A
:100B7000A94206D06B4A2832914201D11A4600E0C0
:100B800022466749091F0A6029E0A94213D0B142F1
:100B900015D0B94220D061451BD049451BD05145E5
:100BA00002D14FF4800217E0414502D14FF080623C
:100BB00012E0594501D104220EE0714501D14022D5
:100BC0000AE0584D1435A94206D0564A28329142BF
:100BD00001D11A4600E022464B4908394A60C16AF1
:100BE00071E04FF0020808FA04F818EA020F70D01A
:100BF0005FEA83786DD50A68920606D40A6822F007
:100C00000A020A60012180F82110DFF810814FF4F8
:100C10000072016808F1140813011402414524D937
:100C2000A9420DD0B1420FD0B9421AD0614515D0BA
:100C3000494515D0514501D1120312E0594501D162
:100C400002220EE0714501D120220AE0354D143513
:100C5000A94206D0334A2832914201D11A4600E017
:100C600022462F49091F0A6029E0A94213D0B14248
:100C700015D0B94220D061451BD049451BD0514504
:100C800002D14FF4001217E0414502D14FF000723B
:100C900012E0594501D102220EE0714501D1202216
:100CA0000AE0204D1435A94206D01E4A283291424E
:100CB00001D11A4600E02246134908394A60002152
:100CC00080F82010816A00291CD0BDE8F05F084739
:100CD000FFE70825A540154214D01A0712D50A6867
:100CE00022F00E020A6090F84020C36B012101FA45
:100CF00002F25A60816380F82110002180F82010F0
:100D0000016BE0E7BDE8F09F080002401C000240D4
:100D10003000024044000240580002406C00024093
:100D2000080402401C04024030B560B11A4B02684E
:100D300014219A4209D2194B1344B3FBF1F18900F3
:100D4000016417490AE0012030BD134B5B42134494
:100D5000B3FBF1F1890001640F490839C163022135
:100D600080F82110136843F6F0718B43F0E9011409
:100D70002143D0E902452C432143046921434469BE
:100D800021438469214319431160002141630122F9
:100D900042770177084630BD08040240F8FFFDBFE6
:100DA0000000024070B5044600F05EF90546601C84
:100DB00002D004480078044400F056F9401BA042D9
:100DC000FAD370BD6C00002030B585B000200090D3
:100DD0000190029003901B48016800292FD1012146
:100DE00001601948416941F4807141614069022400
:100DF00000F48070049043F23F00CDE90004032525
:100E000069460395114800F029F84FF4F060CDE9E8
:100E10000004694603950E4800F020F84CF23B00B0
:100E2000CDE90004694603950A4800F017F860020E
:100E3000CDE9000469460395074800F00FF805B0B6
:100E400030BD00000800002000100240001C0140DE
:100E50000018014000140140002001402DE9F84F26
:100E6000DFF8C891002409F1040A0AF1040B2346B3
:100E70000F270BF1040ED1E00125A54006EA05027B
:100E8000AA4276D1DFF8A8C14E68A6EB0C086645E9
:100E90002BD00DDC032E34D005DC36B3012E19D057
:100EA000022E2FD11BE0112E16D0122E2AD119E0BE
:100EB000B8F5881F19D006DCB8F5803F15D0B8F515
:100EC000801F1FD111E0B8F5001F0ED0B8F5041F28
:100ED00018D10AE0CB6815E0CB681B1D12E0CB6887
:100EE00008330FE0CB680C330CE08B682BB1012B7F
:100EF0004FF0080303D0456104E0042302E00561DC
:100F000000E00023FF2A01D8064601E000F10406B4
:100F10004FEA840501D9A5F12005D6F8008007FA2B
:100F200005FC28EA0C0803FA05F548EA0508C6F8A6
:100F300000804D68ED0070D53E4DAE6946F001066B
:100F4000AE61AD6924F0030605F0010500953A4D48
:100F500006EB050CDCF80850A607360F07FA06F872
:100F600025EA0805DFF8D480404503D14FF000089A
:100F700025E052E0DFF8C880404502D14FF001087B
:100F80001DE0DFF8C080404502D14FF0020816E0B6
:100F9000DFF8B480404502D14FF003080FE0DFF8DE
:100FA000AC80404502D14FF0040808E0DFF8A08093
:100FB000404502D14FF0050801E04FF0060808FA5D
:100FC00006F848EA0508CCF808804D68D9F80060B2
:100FD000ED034D4601D5164300E096432E604D6863
:100FE000DAF80060AD03554601D5164300E096439C
:100FF0002E604D68DBF80060ED025D4601D51643BA
:1010000000E096432E604D68DEF80060AD02754644
:1010100001D5164300E096432E60641C0A6816460C
:10102000E2407FF429AFBDE8F88F000000040140E2
:1010300000001110001002400000014000080140B3
:10104000000C014000100140001401400018014054
:10105000001C01408068084000D0012070470AB1A0
:10106000016170470904FBE7014880687047000090
:101070006C000020704770472DE9F041044600687D
:10108000416946680025CF43F9050BD4F143C905F2
:1010900008D46FF48071012541612068016841F432
:1010A00000410160B80508D4F043C00505D42168AB
:1010B0006FF4007045F002054861780527D4F043CD
:1010C000C00524D494F83E30628D94F83D00216B25
:1010D000202B08D13AB9212810D029280ED0282851
:1010E00001D121290AD021686FF48060486194F809
:1010F0003E0045F00405102804D008E0204601F029
:101100003BFF04E02068016841F40071016038058C
:1011100008D4F043C00505D421686FF4006045F0A1
:1011200008054861002D07D0206C28432064204624
:10113000BDE8F04101F042BBBDE8F0812DE9F0418E
:10114000026800245168C56A90F83E3090F83D600E
:10115000102B1CD0402B1AD0036C002B7ED053696F
:101160004FF02805DB439F0779D4CF43BF0576D4E2
:10117000016C01B1946990F83D3000219D430B460C
:101180007FD0C91E516180F83C30BDE8F081946980
:1011900053694FF42A07DB435FEAC37C4FF02A46CA
:1011A00004D0BD42F1D0B542EFD010E0CD43AD0543
:1011B0000DD4C16AB94201D1012103E0C16AB14233
:1011C00001D10821C162BDE8F04101F0D1BD1D0788
:1011D00016D4CD43AD0513D4416CC9B21161416B36
:1011E00011B9826B002AD0D0896A19B9816B896ADA
:1011F0000029CAD00068416841F400614160C4E739
:101200009D0706D4CD43AD0503D4BDE8F04101F000
:1012100003BDE443526864074FEA025215D4002A22
:10122000B3DB1A0608D4CA43520505D45A0705D5BC
:10123000BDE8F04101F06EBC5A07A6D4C943890548
:10124000A3D4BDE8F04101F023BC002A9DDB5A067F
:101250000CD4CA43520509D45A0702E00FE023E038
:101260000FE005D5BDE8F04101F0C8BB5A078CD4AA
:10127000C943890589D4BDE8F04101F056BB9469A2
:101280006DE7556825F480655560E243540700D545
:101290000121120601D5828900E0028B80F83C30E2
:1012A00092B2FFF7E8FE70E7DC0606D4CC43A40553
:1012B00003D4BDE8F04101F0A1BE212E27D0292E94
:1012C00025D05C0655D4CC43640552D45B0752D577
:1012D00090F83D10438D002B91D01269436A1A702B
:1012E000426A521C4262428D521E4285428D002A41
:1012F00085D12A29D7D101684A6822F480624A60E0
:101300002221016380F83D5000F00AFB3DE71C06F6
:1013100023D4CC43640520D45B0720D590F83D103E
:10132000438D002BBFD0436A1B781361426A521C65
:101330004262428D521E4285428D002AB3D1292934
:10134000B1D101684A6822F480624A6021210163B8
:1013500080F83D5000F0F6FA17E75B07A3D4C943C5
:101360008905A0D4418D00299DD0416A0978116179
:101370000AE05B0797D4C943890594D4418D0029BD
:1013800091D01169426A1170416A491C4162418DD4
:10139000491E4185F9E6704770B504001BD094F8EA
:1013A0003D00002520B984F83C50204600F05CFA4E
:1013B000242084F83D002068016821F001010160CB
:1013C00000F02EFC4D4A6168914201D84C4900E082
:1013D0004C49884201D2012070BD4B492368B0FBC3
:1013E000F1F15E6826F03F060E435E60636893424B
:1013F00006D94FF4967359434FF47A73B1FBF3F166
:101400002368491C1E6A26F03F0631431962616851
:10141000914210D84900401EB0FBF1F2521CC2F3B9
:101420000B02042A01D2042022E0B0FBF1F0401CA0
:10143000C0F30B001CE0A368F3B301EBC10202EBA5
:101440000116421EB2FBF6F2521C42F48042120513
:1014500049D093B301EBC10202EB0111401EB0FB76
:10146000F1F0401CC0F30B0040F4804040F4004019
:101470002168CA694CF6FF739A431043C861D4E9E6
:101480000701084321680A6822F0C002104308607F
:10149000D4E9030101432068826848F2FF339A438C
:1014A00011438160D4E9050108432168CA6822F02C
:1014B000FF021043C86001E00EE016E020680168FA
:1014C00041F0010101602564202084F83D0025637E
:1014D00084F83E50002070BD01EB4106421EB2FB75
:1014E000F6F2521CB3E70120C2E701EB4101401EB6
:1014F000B0FBF1F0401CC0F30B00B7E7A086010081
:1015000080841E0000093D0040420F007047704774
:1015100070477047704700002DE9FF4F83B09A462F
:10152000DDE9119793460446DDF84080FFF79CFD06
:10153000054694F83D0020286FD1192301227B49EC
:101540002046009501F02EFE0028F5D194F83C00CD
:10155000012862D0012084F83C0020680168C90796
:1015600003D1016841F0010101602168086820F49D
:1015700000600860222084F83D00402084F83E008E
:1015800000262664C4F82480A4F82A90608D208563
:101590006748E062CDE9007553465A4620460499F3
:1015A00001F02DFC00287DD1208DDFF8888168B105
:1015B000012814D0022820D02068016841F48061FD
:1015C00001602068416980690090A0E0206841695D
:1015D00081690091016841F40071016097E0206821
:1015E000016821F48061016072B6206841698169F7
:1015F0000091016841F400710CE02168086840F432
:101600000060086072B620684169816900910168D4
:1016100021F48061016062B679E084E003284FD84C
:1016200001280BD002283B464FF0000241462046DD
:1016300000950ED001F0B6FDA0BB0FE02A4639465A
:10164000204601F02EFE68BB20680069616A0870C0
:1016500054E001F0A7FD28BB72B61AE020680168CB
:1016600021F48061016072B620680069616A0870C7
:10167000606A401C6062208D401E2085608D401E87
:1016800060853B46002241462046009501F08AFDD8
:1016900040B92068016841F4007101602068006968
:1016A000616A00E012E00870606A401C6062218D8F
:1016B000491E2185618D491E618562B621681BE046
:1016C0002A463946204601F0ECFD18B1012007B04A
:1016D000BDE8F08F20680069616A0870606A401C8C
:1016E0006062218D491E2185618D491E61852168B9
:1016F0004A69D24352070AD409690170606A401CE2
:101700006062208D401E2085608D401E6085208D8A
:10171000002883D1202084F83D0084F83E6084F8BE
:101720003C600020D3E70220D1E700000200100057
:101730000000FFFF040001002DE9FF4F83B09A462F
:10174000DDE9119793460446DDF84080FFF78CFCF5
:10175000054694F83D0020287FD1192301224049F5
:101760002046009501F01EFD002876D194F83C003B
:10177000012872D0012084F83C0020680168C90764
:1017800003D1016841F0010101602068016821F482
:1017900000610160212084F83D00402084F83E0073
:1017A00000262664C4F82480A4F82A90608D208541
:1017B0002C48E062CDE9007553465A46204604990C
:1017C00001F090FB70B930E02A463946204601F01E
:1017D0009BFD58B1206C042804D12068016841F4B5
:1017E00000710160012007B0BDE8F08F606A2168D8
:1017F00000780861606A401C6062218D491E89B2D0
:101800002185628D521E628522685369DB435B0726
:101810000BD469B100781061606A401C6062208D51
:10182000401E2085608D401E6085208D0028CBD114
:101830002A463946204601F08FFC0028CAD154F8C8
:101840003D0B016841F400710160202004F81E097D
:10185000E67766770020C6E7FFE70220C3E70000CF
:10186000020010000000FFFF30B585B0002100919C
:10187000019102910391264D0368264C1221032207
:101880002548AB4218D1A36943F00803A361A369BB
:10189000039203F008030493C023CDE900316946A5
:1018A000FFF7DCFAE06940F40010E061E06900F461
:1018B0000010049005B030BD184DAB42FAD1A369B9
:1018C00043F00803A361A369039203F008030493A0
:1018D0004FF44063CDE900316946FFF7BFFAE06994
:1018E00040F48000E061E069002200F48000049090
:1018F0001146212000F0CCF8212000F0BBF8002296
:101900001146222000F0C4F8222000F0B3F8D1E7FD
:101910000054004000100240000C014000580040FC
:101920000649884208D10648A1F58E73011F027846
:1019300048781A54401C4870704700006802002024
:10194000040000207047000010B590F83D30202BB7
:1019500034D161B15AB190F83C30012B2ED0012323
:1019600080F83C3003681C68E40702D005E00120E1
:1019700010BD1C6844F001041C6003681C6824F45A
:1019800000641C60222380F83D30202380F83E3024
:101990000023036441624285418D01850849C1628B
:1019A00001680A6842F480620A6080F83C3000688E
:1019B000416841F4E0614160002010BD022010BD8B
:1019C0000000FFFF0248816802781144816070477F
:1019D0006C000020074810B5016841F0100101605B
:1019E000032000F075F8002000F006F800F024F85D
:1019F000002010BD0020024070B50D4D04464FF48C
:101A00007A712878B1FBF0F00A490968B1FBF0F06F
:101A100000F094FB48B9102C07D200222146501E3A
:101A200000F036F800206C6070BD012070BD000031
:101A30006C000020780000200C4808B5816941F056
:101A400001018161816901F001010091C16941F0E9
:101A50008051C161C06900F0805000900448416825
:101A600021F0E06141F00071416008BD00100240CA
:101A700000000140002809DB00F01F020121914015
:101A80004009800000F1E020C0F80011704700001C
:101A9000F0B40E4B1B680C46C3F30223C3F10705D9
:101AA000042D00D90425191D072901D2002300E0C7
:101AB000DB1E012606FA05F1491E214099409E4091
:101AC000761E16403143F0BC01F062BE0CED00E022
:101AD000064900F0070208684FF6FF03184040EA85
:101AE0000220034A10430860704700000CED00E03C
:101AF0000000FA052DE9F0470F46050061D0434E7E
:101B0000306800F00700B84209D2306820F00700C2
:101B100038433060306800F00700B84251D128687F
:101B20003B4C810712D5400703D5606840F4E06064
:101B300060602878000703D5606840F460506060FA
:101B40006068A96820F0F000084360602878C0074A
:101B500028D06868012810D02168022810D0890791
:101B600000292EDA616821F0030101436160FFF76B
:101B70007BFA804641F288390DE021688903EFE75E
:101B80008901EDE7FFF770FAA0EB0801494502D99A
:101B90000320BDE8F0876068696800F00C00B0EBD6
:101BA000810FEFD1306800F00700B8420BD93068E0
:101BB00020F0070038433060306800F00700B8427A
:101BC00001D00120E5E72878400705D56068E9687D
:101BD00020F4E060084360602878000706D560685C
:101BE000296920F4605040EAC100606000F038F8D4
:101BF0006168084AC1F30311515CC8400649086096
:101C000006480068FFF7F8FE0020C2E70020024007
:101C100000100240104A00087800002070000020E8
:101C20000448054900684968044AC1F30221515C2F
:101C3000C84070477800002000100240204A000889
:101C40000448054900684968044AC1F3C221515C4F
:101C5000C84070477800002000100240204A000869
:101C600012A185B00FC98DE80F0014A0144A0068B6
:101C700004905168134801F00C03042B10D0082B7A
:101C80000ED1C1F38343C9031DF803000AD551687F
:101C900004AAC1F34041515C0A4A5043B0FBF1F041
:101CA00005B0704708494843FAE7000002030405FD
:101CB000060708090A0B0C0D0E0F10100102000098
:101CC0000010024000127A0000093D002DE9F84F93
:101CD000040070D02078C04DC00749D06868C0F3B8
:101CE0008100012807D06868C0F38100022809D16B
:101CF0006868C00306D52868800339D56068002865
:101D0000E7D035E06068B0F5803F0BD010B1B0F59A
:101D1000A02F11D0286820F480302860286820F493
:101D2000802002E0286840F480302860606890B12C
:101D3000FFF79AF906460AE0286840F480202860F8
:101D4000F0E700BFFFF790F9801B642873D828687C
:101D50008003F7D50CE0FFF787F9064605E000BFE2
:101D6000FFF782F9801B6428F0D828688003F7D435
:101D700020789A4E80074FF001094FF0000839D5BE
:101D8000686810F00C0F07D06868C0F38100022863
:101D900009D16868C00306D42868800714D5206973
:101DA000012808D110E02069B0B1C6F80090FFF713
:101DB0005BF9074605E00AE1FFF756F9C01B022868
:101DC000C4D828688007F7D52868616920F0F80032
:101DD00040EAC10028600DE0C6F80080FFF744F932
:101DE000074604E0FFF740F9C01B022823D8286803
:101DF0008007F7D4207800072CD57948A169D9B19C
:101E0000C0F80090FFF730F9074604E0FFF72CF91F
:101E1000C01B02280FD8686A8007F7D571484FF4B5
:101E2000FA510068B0FBF1F0009000BF0098411E2D
:101E30000091FAD20EE080E0C0F80080FFF714F9BC
:101E4000074604E0FFF710F9C01B022875D8686A3E
:101E50008007F7D42078400760D5E8690027C000E4
:101E600008D4E86940F08050E861E869012700F093
:101E7000805000905C480168C90513D4016883460E
:101E800041F480710160FFF7EFF8824606E000BF81
:101E9000FFF7EAF8A0EB0A0064284ED8DBF8000050
:101EA000C005F5D5E06801280AD008B1052813D08F
:101EB000286A20F001002862286A20F0040002E06D
:101EC000286A40F001002862E06841F2883B98B13E
:101ED000FFF7CAF882460BE0286A40F00400286247
:101EE000EEE700BFFFF7C0F8A0EB0A0159455AD84A
:101EF000286A8007F6D50CE0FFF7B6F8824605E0C1
:101F0000FFF7B2F8A0EB0A0159454CD8286A8007C0
:101F1000F6D41FB1E86920F08050E861E06988B329
:101F20006968C1F38101022944D00228C6F86080A3
:101F300004D0FFF799F8044638E034E0FFF794F84E
:101F4000074604E0FFF790F8C01B02282BD828684A
:101F50008001F7D4206AB0F5803F05D16868A16898
:101F600020F4003008436860D4E908010843696838
:101F700021F4741108436860C6F86090FFF774F8A4
:101F8000044606E025E000BFFFF76EF8001B0228BC
:101F900009D828688001F7D51BE000BFFFF764F877
:101FA000001B022802D90320BDE8F88F28688001B1
:101FB000F4D40EE00128F7D06868226A00F480317A
:101FC000914204D1616A00F47010884201D001206E
:101FD000EAE70020E8E7000000100240000042426B
:101FE00080044242780000200070004070B5040078
:101FF00005D00025A56294F8510010B106E001203B
:1020000070BD84F85050204600F02EF8022084F86D
:1020100051002068016821F040010160D4E901010C
:102020000843D4E903121143084361690843218B33
:1020300001F400710843E1690843216A0843A16A79
:10204000084321680860A069042101EA1040216862
:1020500048602068C16921F40061C16165650120A3
:1020600084F85100002070BD30B585B00024009484
:1020700001940294039400681549884225D11548BB
:10208000C16941F48041C161C16901F48041049199
:10209000816941F00801816180690F4D00F00800FD
:1020A00004904FF4304000900220019003200390F0
:1020B00069462846FEF7D2FE4FF48040CDE9000481
:1020C000694628460294FEF7C9FE05B030BD0000FF
:1020D0000038004000100240000C014070B5154669
:1020E0000E46040003D094F8410010B107E001202F
:1020F00070BD002084F84000204600F01DF804F177
:1021000008012068FEF796FB3146A2682068FEF7BA
:10211000C5FBD4E901022946236BFEF76DFB21685C
:10212000A06851F8202042F0010241F8202001204F
:1021300084F84100002070BDFEF746BE10B5401E79
:10214000B0F1807F01D3012010BD4FF0E024606129
:102150000F21601701F01CFB0020A0610720206107
:10216000002010BD7047000070B50268044610687A
:10217000D168536910F00F0F51D003F0010501F43D
:10218000907635435DD0C20705D0CA0503D5E26B12
:1021900042F00102E263420705D5DA0703D0E26BA1
:1021A00042F00202E263820705D5DA0703D0E26B50
:1021B00042F00402E263020705D5DA0703D0E26BBE
:1021C00042F00802E263E26B002A34D0800604D5B4
:1021D000880602D5204601F0AFF920684069E16B1E
:1021E000C0F3801001F008010143204624D001F023
:1021F00095F92068416949061AD5416921F04001E5
:102200004161606BA0B11B494163606BFEF7CCFB81
:10221000002810D0606B416BBDE870400847830612
:102220000FD58B060DD52046BDE8704001F084B96E
:102230002046FFF797FF70BDFFF794FF0020E06393
:1022400070BD030606D50B0604D52046BDE87040D8
:1022500001F01ABA4006F3D54806F1D5D1682046F8
:1022600021F04001D160202184F8391000F089F973
:1022700070BD00000D35000870B5040004D094F85E
:102280003900002510B106E0012070BD84F83850F7
:10229000204600F023F8242084F839002068C16823
:1022A00021F40051C160204601F092F920680169D3
:1022B00021F4904101612068416921F02A014161C6
:1022C0002068C16841F40051C160E563202084F8B2
:1022D000390084F83A00002070BD0000F0B585B0E8
:1022E00000240646009401940294039400682C494B
:1022F000884252D12B48816941F4804181618169D2
:1023000001F480410491816941F004018161806997
:10231000254D00F0040004904FF40070009002205E
:1023200001900320039069462846FEF797FD281583
:10233000CDE90004694628460294FEF78FFD1C4D46
:102340001A488027C5E90004C5E902472C616C6181
:10235000AC612846EC61FEF7E7FC08B1FEF74BFAEA
:1023600075636E621148134D143801C5102091C574
:10237000104845F810496C61AC61EC61FEF7D4FC83
:1023800008B1FEF738FA35630022114625206E6247
:10239000FFF77EFB2520FFF76DFB05B0F0BD0000C9
:1023A000003801400010024000080140580002407F
:1023B0009C030020E003002090F83A30202B22D12B
:1023C000F9B1F2B190F83830012B1CD081628285CE
:1023D000C2850021C163222280F83A2080F838109B
:1023E0000168CA6842F48072CA6001684A6942F0B2
:1023F00001024A610068C16841F02001C16000200B
:102400007047012070470220704700002DE9F0411D
:10241000284C294FE11C20780E780025C82805D3C8
:102420002570C8213846FDF7B6FE02E03E54401C38
:1024300020704FF6FF73082E0FD00D2E28D01D49A7
:102440000122C91C1D4800F03FF8BDE8F0411949C0
:102450000122C91C1948FFF7AFBF20782646012882
:1024600014D914491C460122C91C144800F02CF848
:1024700013A001F075F90F4923460122C91C0F482A
:1024800000F022F83078801E3070DEE72570DCE73F
:102490000CA001F065F92078012808D020213A1815
:1024A00002F8011C3D5425700120A070CDE70248C0
:1024B0000570F8E7000000208400002014030020CD
:1024C000200000000D0A00002DE9F843044690F8B2
:1024D00039001F4616460D46202850D1A5B19EB1A1
:1024E00094F8380001284AD0012084F838004FF0D1
:1024F0000008C4F83C80212084F83900FEF7B4FDC0
:10250000A6848146E68426E00120BDE8F883E08CBD
:10251000401EE084A0684B46B0F5805F4FF000029B
:102520004FF080012046009703D001F0DEF8E8B9B3
:102530000DE001F0DAF8C8B928882168C0F3080076
:102540004860206908B16D1C05E0AD1C03E02168FE
:1025500015F8010B4860E08C0028D8D14B460022CA
:1025600040212046009701F0C0F808B10320CCE7D5
:10257000202084F8390084F838800020C5E7022044
:10258000C3E77047FEE700002DE9FF4790F800A081
:1025900041798679C579077A4FF0010909220DF151
:1025A0000D048DF80C20CDE900498DF80D104FF089
:1025B000FF084B4651461B48CDF80880FFF7BCF892
:1025C00060BBBF228DF80C208DF80D604E468DE863
:1025D0005001012351461348FFF7AEF8F0B90D2220
:1025E0008DF80C20CDE900468DF80D5045460123AD
:1025F00051460C48CDF80880FFF79EF870B91922B3
:10260000CDE900468DF80C208DF80D700123514660
:1026100004480295FFF790F8002800D0FF2004B08E
:10262000BDE8F087140200202DE9FF4790F800A0D4
:102630000324054603AEFE274FF010084FF00109B2
:10264000CDE900693A46012351460D48CDF808808E
:10265000FEF762FF40B1641E9DF80C00E4B2012851
:1026600002D0002CECD104E01CB19DF80C00012834
:1026700003D0FF2004B0BDE8F087A8700020F9E780
:10268000140200202DE9FF4790F800A0032405461E
:10269000002703AE4FF010084FF00109CDE90069A3
:1026A0003A46012351460A48CDF80880FEF734FF28
:1026B00020B1641E14F0FF04F0D107E034B19DF89E
:1026C0000C002871002004B0BDE8F087FF20FAE775
:1026D000140200202DE9FF4790F800A003240546CE
:1026E00003AE31274FF010084FF00109CDE9006922
:1026F0003A46012351460A48CDF80880FEF70CFF00
:1027000020B1641E14F0FF04F0D107E034B19DF84D
:102710000C00E870002004B0BDE8F087FF20FAE765
:10272000140200200148FEF7A7BC00006802002048
:102730000148FEF703BD00006802002010B5406AA2
:1027400090F83D30426B00219162826B9162026889
:10275000146824F4806414604185426B5163826B79
:1027600051630268146824F00104146090F83D205D
:102770002024602A0BD0282232EA03030FD080F8ED
:102780003D4080F83E1000BFFEF705FE10BD80F80A
:102790003D4080F83E100164FEF76CFC10BD0368FC
:1027A0001C6844F001041C6003681C6844F48064E5
:1027B0001C60016380F83D20E6E7000070B5044628
:1027C00090F83D0094F83E10102906D1222804D13B
:1027D00021680A6822F400620A60282131EA0002B6
:1027E0004FF000054FF0200626D021684968090502
:1027F00003D4602801D084F83D60256384F83E50FE
:1028000020684168090537D5416821F400614160BD
:10281000606B384990F82120012A11D04163606B28
:10282000FEF7C2F838B32068016821F001010160A9
:1028300084F83D60606B1CE0256384F83D10DFE7A1
:10284000A06B4163A06BFEF7AFF8A0B120684169AF
:10285000C943490605D40069616A0870606A401C72
:1028600060622068016821F00101016084F83D6028
:10287000A06B416B884710E094F83D10602923D08D
:102880004169C943490605D40069616A0870606AF4
:10289000401C60622046FEF77EFD94F83D00216CEE
:1028A000490710D528280ED12068416821F4E0613D
:1028B00041601148E062256384F83D6084F83E5031
:1028C0002046FEF723FE70BD84F83D602564416913
:1028D000C943490605D40069616A0870606A401CF2
:1028E00060622068016821F0010101602046FEF766
:1028F000C1FBD2E73D2700080000FFFF01684A69DD
:10290000D24352050FD46FF480624A61002140F82F
:10291000301F202242738173026942F00402026177
:102920000173012070470020704710B5C26A438DC3
:102930000168042B06D0438D032B08D0438D022B56
:102940001DD012E04A6822F480624A600CE04B68B5
:1029500023F480634B60042A06D0022A04D0016865
:102960000A6822F480620A6001680969426A11708B
:10297000416A491C4162418D491E418510BD012AB1
:1029800030D0102A2ED0042A30D0022A2ED00A6845
:1029900042F400720A6001680969426A1170416A72
:1029A000491C4162428D521E4285026812690A70BA
:1029B000416A491C4162418D491E418501684A684E
:1029C00022F440724A60202180F83D1090F83E20A9
:1029D0000021402A80F83E100CD012210163FEF73E
:1029E00096FD10BD0A6822F48062D3E70A6842F4BB
:1029F0008062CFE70163FEF78CFD10BD10B590F843
:102A00003D10222914D1418D032912D90168096989
:102A1000426A1170416A491C4162418D491E4185DB
:102A2000418D032904D10068416821F4806141602F
:102A300010BDC26A022AFBD0012901D00029F7D1BA
:102A400001680A6822F480620A6001684A6822F418
:102A5000E0624A6001680969426A1170416A491C72
:102A60004162418D491E4185202180F83D1090F83A
:102A70003E200021402A80F83E1004D0122101633C
:102A8000FEF745FD10BD0163FEF743FD10BD0000DC
:102A900010B5C26A90F83D1021290BD1418D51B17A
:102AA000416A026809781161416A491C4162418D9D
:102AB000491E418510BD20230021082A13D0202A59
:102AC00011D012F5803F0ED00268546824F4E064FF
:102AD00054601122026380F83E1080F83D3000BF40
:102AE000FEF716FD10BD0268546824F4E0645460DB
:102AF0000268146844F400741460016380F83D3087
:102B000090F83E2080F83E10402AE9D1FEF702FD01
:102B100010BD000010B590F83D1090F83E30C26A2C
:102B2000048D64B1212903D0402B21D122291FD14A
:102B3000418DA1B390F83E10402937D046E02129BD
:102B4000F2D120230021082A13D0202A11D012F517
:102B5000803F0ED00268546824F4E064546011226F
:102B6000026380F83E1080F83D3000BFFEF7D0FCD5
:102B700010BD0268546824F4E0645460026814686C
:102B800044F400741460016380F83D3090F83E20F6
:102B900080F83E10402AE9D1FEF7BCFC10BDFFE7EB
:102BA0000068416821F480614160F7E7016DC1B1BF
:102BB000016D012922D0016D0229EFD190F83D105D
:102BC000222923D090F83D102129E7D1416A0268DB
:102BD00009781161416A491C4162418D491E418554
:102BE000DCE7C16C0129816C02D0C1F3072107E049
:102BF0000268C9B21161016D891C05E0816CC9B21E
:102C000002681161016D491C0165C7E70068016830
:102C100041F480710160C1E778B590F83E50C26A16
:102C2000046B90F83D6000230168222E73D1066D7D
:102C30000EB9402D6FD0056D1DB90569B5F5404F32
:102C40001BD0458D95B3468D484D012E20D0448D27
:102C5000022C4DD00C6844F480640C6001684C6810
:102C6000240579D5AA4273D0012A71D0082A6FD0E1
:102C7000102A6DD0202A6BD06EE04A698A690092D2
:102C80000A6842F480720A60016D491C016578BDD2
:102C9000AA4214D10A6822F480620A6001684A6874
:102CA000120504D50A6822F4806217E0FFE74A693A
:102CB0008A6900920A6842F400720A6050E0082AA9
:102CC00010D0202A0ED0122C0AD0042A03D0022AB7
:102CD00001D0102AE6D10A6842F480620A603BE023
:102CE000012ADFD00A6822F480620A600168DEE708
:102CF000042A11D0022A0FD0102A0DD00C6844F4F7
:102D000000640C6001684C698C6900940C6824F4C0
:102D100080640C6008E025E00C6844F480640C607A
:102D200001684C698969009101684C68240517D5D0
:102D3000AA4207D0012A05D0082A03D0102A01D0C0
:102D4000202A0DD14A6842F480524A6008E0FFE729
:102D50004A6842F480524A6001684A698969009170
:102D6000036578BD48698869009078BD0000FFFF61
:102D700090F83E10402910D00169B1F5804F19D06C
:102D8000016DB1B3016D012910D1416C5FF0F10209
:102D900001F4407142EAD11106E0016D0029416C55
:102DA00005D0C9B241F0010100680161704701F02E
:102DB000FE01F9E790F83D102129416C07D0C9B216
:102DC00041F0010102681161416B31B902E001F08B
:102DD000FE01F7E7826B002AE8D0896A19B9816B96
:102DE000896A0029E2D00068416841F400614160CD
:102DF0007047FFE7416CF02201F44071CAE72DE90A
:102E0000F84F0446006889460B9D016898461746AE
:102E100041F4806101602068016841F480710160C3
:102E200000954FF0011A0022514620460A9B00F0FF
:102E3000B9F9002853D1216809F0FE0008610AF1B0
:102E4000010B2B46594620460A9A00F0DFF9F0BBE9
:102E500020684169806900902A4620460A9900F05E
:102E600053FA40B1206C042839D12068016841F43C
:102E70000071016033E0FEB2B8F1010F09D02168A2
:102E8000380A08612A4620460A9900F03DFA0028CF
:102E9000E8D1206806612A4620460A9900F034FAF3
:102EA0000028DFD12068016841F48071016000953D
:102EB0000022514620460A9B00F074F938B9216877
:102EC00009F0FF0040F0010008612B4600E006E039
:102ED000594620460A9A00F099F9002800D00120AE
:102EE000BDE8F88F2DE9F843044600680D46DDE99A
:102EF000089701689846164641F4807101604B4678
:102F000000224FF001112046009700F04BF9E0B984
:102F1000216805F0FE0008613B464A4615492046F7
:102F200000F074F988B920684169806900903A46D8
:102F30004946204600F0E8F950B1206C042804D13D
:102F40002068016841F4007101600120BDE8F88348
:102F5000F5B2B8F1010F09D02168300A08613A468C
:102F60004946204600F0D0F90028E6D120680561E6
:102F70000020EBE7020001002DE9F04190F83D4010
:102F8000C26A002320261C4F01686FF48065082A5E
:102F900001D0202A01D1282C04D0212C16D04D613B
:102FA000BDE8F081C7624A6822F4E0624A600168C5
:102FB0004D6101680A6822F480620A60036380F848
:102FC0003D6080F83E30FEF7A1FAE9E7C7622122B2
:102FD000026380F83D6080F83E304A6822F4E06287
:102FE0004A6001684D6101680A6822F480620A60E3
:102FF000FEF7A8FCD4E700000000FFFFF8B590F84A
:103000003D6004460068416821F4E0614160206849
:10301000002541690091016841F0010101602068CB
:10302000016821F48061016020684168090520D5AC
:10303000474F222E48D02A2E46D0616B0968496836
:103040006185618D19B1216C41F0040121644168F1
:1030500021F400614160606BFDF73EFD012808D05E
:10306000606B4763606BFDF79FFC10B1606B416B59
:103070008847608D08B320684169C943490708D46F
:103080000069616A0870606A401C6062608D401E61
:10309000608520684169C943490608D40069616AAE
:1030A0000870606A401C6062608D401E6085608DA3
:1030B00018B1206C40F004002064206C00B320465E
:1030C000BDE8F840FFF77ABBA16B096849686185E4
:1030D000618D19B1216C41F004012164416821F432
:1030E00000614160A06BFDF7F7FC0128C1D0A06B27
:1030F0004763A06BFDF758FC0028BAD0A06BB6E779
:103100002A2E06D12563282084F83D002046FEF7AC
:1031100007FC94F83D10202028290DD0216B22298E
:1031200001D0222E07D1256384F83D0084F83E505B
:103130002046FEF7F5FBF8BD0649E162256384F8F9
:103140003D0084F83E502046FEF7E0F9F8BD00004F
:103150003D2700080000FFFF70B516460D460446E7
:103160000DE02046FFF7CAFB08B1012070BD681CC6
:1031700005D0FDF779FF801BA84207D835B120683C
:103180004069C0434007ECD4002070BD002044F8E3
:10319000300F20216173A073216941F0200121616A
:1031A0002073E2E72DE9F0471E4690460D4604469F
:1031B000C1F30747DDF8209008E0701C06D0FDF74A
:1031C00053FFA0EB0900B0420FD876B12068012F61
:1031D00018D0806925EA00000004000C14D00021FA
:1031E0004145EAD00020BDE8F087002044F8300FC8
:1031F00020216173A073216941F0200121612073B6
:103200000120F0E74069E5E70121E9E72DE9F04712
:103210009A4691460E46044600254FF02008C1F319
:10322000074725E020684069C043400514D4206862
:10323000016841F40071016021686FF480604861A9
:10324000256384F83D8084F83E50206C40F00400F3
:10325000206484F83C501FE0B9F1FF3F08D0FDF72F
:1032600003FFA0EB0A0149450CD8B9F1000F09D0C2
:103270002068012F13D0806926EA00000004000CAA
:103280000BD0CFE744F8305F84F80D80A573206938
:1032900040F02000206125730120BDE8F0874069DF
:1032A000EAE72DE9F041002590460E460446202726
:1032B00017E04069C043C0060CD454F8301B6FF0CF
:1032C0001000486144F810596777A577206A20629A
:1032D000257717E0FDF7C8FEA0EB0800B04208D83C
:1032E0003EB120684169C9434906E2D40020BDE8E7
:1032F000F08144F8305F6773A573206940F02000C7
:10330000206125730120F2E770B516460D4604468C
:103310000DE02046FFF7F2FA08B1012070BD681CED
:1033200005D0FDF7A1FE801BA84207D835B1206863
:103330004069C0430006ECD4002070BD002044F872
:10334000300F20216173A073216941F020012161B8
:103350002073E2E77047000000B587B01C21684683
:10336000FCF719FF16484FF020410422016015496F
:10337000C0E901120021C0E903121022C0E90521B1
:10338000C16112020162C0E90912C16201634163B5
:1033900081630A200090012001900320CDE9020101
:1033A000049105910691002269460548FEF796FEB4
:1033B0000548C16941F48061C16107B000BD0000EA
:1033C00054030020040100A000000140194808B582
:1033D000816941F080018161816901F08001009182
:1033E000816941F040018161816901F040010091F2
:1033F000816941F008018161816901F00801009152
:10340000816941F020018161816901F02001009111
:10341000816941F004018161816901F00401009139
:10342000816941F480718161806900F4807000904D
:1034300008BD0000001002400B480A494FF48022EA
:1034400001604FF48271416000218160C1600161BF
:10345000C0E90512C1610162416281620A21C16253
:10346000FEF7C4BD00380040BC020020FEE77047F4
:1034700070477047FEF7A6BA30B58FB0282168466E
:10348000FCF789FE14210AA8FCF785FE022501201D
:10349000049000951020059000244FF4C010CDE951
:1034A000084007956846FEF711FC0F200A90CDE909
:1034B0000B540D9401210AA80E94FEF71BFB0FB0CC
:1034C00030BD00000D48016841F001010160416814
:1034D0000B4A1140416001680A4A114001600168CD
:1034E00021F480210160416821F4FE0141604FF424
:1034F0001F0181600449C00308607047001002404A
:103500000000FFF8FFFFF6FE08ED00E010B5406A8E
:103510000021C185C184FEF725FE10BD0168CA687F
:1035200022F49072CA6001684A6922F001024A617D
:10353000202180F83A10704710B590F83A102229EF
:1035400001D0022010BD8168B1F5805F11D0016902
:10355000002901681FD0496801F07F03816A4A1C75
:1035600082620B70C18D491E0904090CC18518D0F7
:103570002BE00269816A002A0268526805D0D2B243
:103580000A80816A491C8162ECE7C2F308020A8062
:10359000816A891CF7E74A68816A4B1C83620A705A
:1035A000E0E70168CA6822F02002CA600168CA68C0
:1035B00022F48072CA6001684A6922F001024A61FD
:1035C000202180F83A10FEF721FF002010BD0000F6
:1035D0002DE9F041044600680169E26821F4405198
:1035E000114301612169A0680843616908432168AA
:1035F000CA6841F20C639A430243CA602068416979
:10360000A26921F44071114341611E49206864257B
:103610003226884202D1FEF713FB01E0FEF700FBE1
:1036200000EBC00101EB001160686FF0180780002B
:10363000B1FBF0F2B2FBF5F2B1FBF0F37A4303EB2E
:103640008202B1FBF0F306EB0212B2FBF5F2B3FB20
:10365000F5F302F0F00202EB0312B1FBF0F3B1FB61
:10366000F0F0B0FBF5F0784303EB800006EB0010C0
:10367000B0FBF5F0216800F00F0010448860BDE851
:10368000F08100000038014090F83910212901D064
:10369000022070478168B1F5805F016A0BD04A1C37
:1036A0000262026809785160C18C491E0904090C44
:1036B000C1840ED017E009880268C1F30801516087
:1036C00001690029016A02D0491C0162ECE7891CEA
:1036D000FBE70168CA6822F08002CA600068C1681E
:1036E00041F04001C160002070472DE9F04198464B
:1036F00017460E460446069D1DE0681C1BD02DB1E2
:10370000FDF7B2FCA0EB0800A84214D92068C168FC
:1037100021F4D071C1602068416921F0010141614B
:10372000202084F8390084F83A00002084F838001A
:103730000320BDE8F0812068006836EA000004D06C
:103740000020B842D9D00020F3E70120F9E70000BB
:103750000148FEF709BD000014030020FEE7000049
:103760000FB4054B10B503A9044A029800F0E2F823
:1037700010BC5DF814FB0000ED4100088000002043
:10378000014B024A00F0D6B8ED410008800000204D
:103790000907090E002804DB00F1E02080F800147E
:1037A000704700F00F0000F1E02080F8141D704712
:1037B00002E008C8121F08C1002AFAD170477047FA
:1037C000002001E001C1121F002AFBD17047000058
:1037D0002DE9FF5FDDE90220010DDDF838B002437D
:1037E00018D044F61050A1F2FF3141430D140F9848
:1037F000012820D0A5EB0B00401C5FEA000A4FF027
:103800000004474EDFF81C91A046504616D5CAF179
:10381000000728E00F98012443A2012808D00021C6
:1038200000980F9BC0E90021C0E90243BDE8FF9F5B
:103830006FEA0B01F4E7CBF10000DEE7074612E088
:10384000F80707D02246334640464946FCF7E9FDD3
:10385000804689462246334610461946FCF7E1FD6C
:1038600004460E467F10002FEAD1DDE90201BAF1CD
:10387000000F42464B4602DAFCF7D3FD01E0FCF7AD
:1038800042FE04460E460022284BFCF7C3FE03D836
:103890004FF0FF30014607E00022254B204631461D
:1038A000FCF718FDFCF79EFE102409E0002C0ADB53
:1038B0000A220023FCF7D7FC019B30321A55641E04
:1038C00050EA0102F2D1641C019AC4F111031444BC
:1038D0000F9A012A03D0012208430DD10AE00843C0
:1038E00004D000204FF0110B0F9080E7A3EB0B05E5
:1038F0006D1E0DE05B4504DD4FF0000205F1010592
:1039000004E003DA4FF00002A5F10105002AECD033
:1039100000980F99C0E90231C0E9004586E7000030
:10392000000024400000F03F300000000000F043A1
:103930000000E03F2DE9FF4F95B09B4689460646C3
:1039400000250FE2252877D100242746F84A0121D7
:10395000059400E0044316F8013F203B01FA03F010
:103960001042F7D130782A2811D06FF02F03307829
:10397000A0F13002092A16D8059A44F0020402EB9D
:10398000820203EB42021044761C0590EFE759F8DF
:10399000042B0592002A03DA504244F400540590A7
:1039A00044F00204761C30782E2816D116F8010F48
:1039B00044F004042A280DD06FF02F023078A0F1D3
:1039C0003003092B09D807EB870302EB4303C71821
:1039D000761CF3E759F8047B761C30786C280FD0FE
:1039E00006DC4C2817D068280DD06A2814D104E0D2
:1039F000742810D07A280FD10DE044F400140AE0A6
:103A000044F4801401E044F440147278824202D1FC
:103A100004F58014761C761C307866280BD013DCF5
:103A2000582877D009DC002875D04528F6D04628DC
:103A3000F4D047281AD19DE118E0632835D06428D6
:103A400079D0652812D195E1702873D008DC6728F9
:103A5000F1D069286FD06E280DD06F2806D1B5E05F
:103A600073282CD0752875D0782874D05A461799A9
:103A700090476D1C75E1C4F30250022809D0032859
:103A80000DD0D9F8001004280DD00D6009F10409FB
:103A900067E1D9F80010EA17C1E90052F6E7D9F852
:103AA00000100D80F2E70D70F0E719F8041B8DF897
:103AB000001000208DF80100EA46012003E059F8CB
:103AC00004AB4FF0FF3061074FF0000102D40DE06E
:103AD00008F101018846B9420FDA8045F8DB1AF88F
:103AE00008100029F4D108E008F10101884681425C
:103AF000FADB1AF808100029F6D105985B46A0EB0E
:103B0000080721463846179A00F094FA284400EB3B
:103B1000080507E04DE029E10DE01AF8010B5A46CF
:103B200017999047B8F10108F7D25B46214638460D
:103B3000179A13E142E00A220092C4F302524FF0B6
:103B4000000A022A08D059F804CB032A4FEAEC7184
:103B50000AD00DE029E02AE009F1070121F007026F
:103B6000F2E802C1914609E00FFA8CFC4FEAEC71D1
:103B7000042A03D14FFA8CFC4FEAEC71002907DAD2
:103B80000A460021DCF1000C61EB02012D2202E06B
:103B9000220504D52B228DF80420012203E0E20740
:103BA00001D02022F7E7904659E00A2102E01022D6
:103BB0000DE010214FF0000A00910BE010224FF0B1
:103BC000000A44F004040827009203E008224FF0A2
:103BD000000A0092C4F30252022A05D059F804CB1D
:103BE0000021032A08D009E009F1070121F00702AA
:103BF000F2E802C1914605E01FFA8CFC042A01D1CB
:103C00000CF0FF0C4FF00008220728D5702806D0D2
:103C1000009B83F0100353EA0A0305D00EE0402214
:103C20008DF80420012208E05CEA010206D030226F
:103C30008DF804208DF8050002229046009B83F049
:103C4000080353EA0A030AD15CEA010201D16207C0
:103C500005D530228DF804204FF001087F1E58282A
:103C600004D034A003900EA802900DE036A0F9E72E
:103C700053466046009AFCF7F6FA84460398825C45
:103C80000298401E029002705CEA0100F0D1029896
:103C900006A9081A00F1200A600702D524F480342E
:103CA00000E00127574502DDA7EB0A0000E00020F5
:103CB00000EB0A01009005984144401A0590E0038A
:103CC00006D45B462146179A059800F0B3F90544DF
:103CD000002706E001A85A46C05D179990476D1C61
:103CE0007F1C4745F6DBE0030CD55B462146179A5F
:103CF000059800F09FF9054404E030205A461799D2
:103D000090476D1C0099481E00900029F5DC08E0E2
:103D1000029802995A460078491C029117999047D7
:103D20006D1CBAF10001AAF1010AF1DC65E10000A5
:103D30000928010030313233343536373839616281
:103D40006364656600000000303132333435363745
:103D500038394142434445460000000000F058F91C
:103D60000544761C307800287FF4ECAD19B0284665
:103D7000BDE8F08F620700D4062709F1070222F0A0
:103D8000070CFCE80223E14603F000485FEA080C58
:103D900002D00FF2702C0DE05FEA045C02D50FF246
:103DA000682C07E05FEAC47C02D00FF2602C01E0CF
:103DB000AFF2700C4FF0FF3823F00043CDF850C045
:103DC00065280CD006DC452809D046281DD0472898
:103DD0003DD13DE0662818D067287ED138E000212B
:103DE000112F01DB112000E0781CCDE9000106A9AC
:103DF0000EA8FFF7EDFCDDE90F010E9A03910021FB
:103E0000009207F1010A04914DE04FF00040009745
:103E1000CDE9011006A90EA8FFF7DAFCDDE90F02D3
:103E200003920E9B11990022DDF80CA000930492DE
:103E300011B9791C00EB010AB7EB0A0004D4C0F1F8
:103E4000FF3007F1010A0490AAEB0700019044E05B
:103E5000012F00DA01270021112F01DD112000E0E0
:103E60003846CDE9000106A90EA8FFF7B1FCDDE94F
:103E70000F010E9A0391002104910092BA46210786
:103E80000CD40399514500DA8A46BAF1010F05DDD9
:103E9000009AAAF10101515C302908D0B84202DA37
:103EA00010F1040F06DA0121CDE9011015E0AAF1A5
:103EB0000101E9E7002805DC049901440491AAEB1B
:103EC000000102E0411C514500DD8A460499401A78
:103ED000401C01904FF000400290200704D401984C
:103EE000504501DBCDF8048000208DF84F0002988A
:103EF0000DF14F07B0F1004F25D02B200E90029806
:103F00004FF0020800280CDA404202902D200E905B
:103F100007E00A210298FCF790F93031029007F887
:103F2000011DB8F10001A8F10108F2DC0298002897
:103F3000EFD1791E0E980870307800F0200040F024
:103F4000450007F8020D12A8C01B00F107081498DD
:103F5000007800B1012000EB0A01019801EBE0714B
:103F600005984144401A401E0590E00306D45B4684
:103F70002146179A059800F05DF8054414980078DA
:103F800018B15A46179990476D1CE00324D55B463B
:103F90002146179A059800F04DF805441CE0049856
:103FA000002807DBDDE90301884203DD0098405C5F
:103FB000179901E0179930205A469047049805F167
:103FC0000105401C04900198401E019004D12E2050
:103FD0005A46179990476D1CBAF10001AAF1010ADF
:103FE000DDDC05E017F8010B5A46179990476D1C68
:103FF000B8F10001A8F10108F4DC5B462146179AEC
:104000000598ABE62D0000002B000000200000000A
:104010002DE9F041044600251E461746880404D4C5
:1040200005E039462020B0476D1C641EF9D52846AE
:10403000BDE8F0812DE9F041044600251E4690467A
:10404000C80301D5302700E02027880404D505E007
:1040500041463846B0476D1C641EF9D52846BDE878
:10406000F081000030B5ADF5017D4FF401752946B2
:104070006846FCF790F8154C207818B32946684636
:10408000FCF789F812496846FCF797F8C8211048F0
:10409000FCF781F8002020706846FCF787F850B1E3
:1040A0006846FCF783F80146684600F021F810B135
:1040B00008A0FFF755FB0CA0FFF752FB00200DF501
:1040C000017D30BD4FF0FF30F9E700000200002015
:1040D000840000202E556E6B6E6F776E20636F6DBF
:1040E0006D616E640D0A00004D43552320000000F1
:1040F000F0B5ADF2044D00246E4601E00020641CD2
:1041000013A1FCF763F846F824000028F6D1002C30
:104110000DDD00250F4F04E0009900F01DF870B18F
:104120006D1C05EB450057F820000028F4D1094824
:1041300000F048FB6FF002000DF2044DF0BD05EBFE
:10414000450007EB8000311D4268601E9047F3E791
:1041500020000000100000202DE9F041074686B045
:1041600088460846FCF722F8102804D83846FCF7A1
:104170001DF8102804D94FF0FF3006B0BDE8F081DB
:1041800041463846FCF744F80028F6D0142168462A
:10419000FCF701F800252C466E4607E0385DA0F1DB
:1041A0004101192901D870556D1C641C3846FBF774
:1041B000FDFFA042F2D8002070556846FBF7F6FFDD
:1041C00028B141466846FCF723F80028D5D00120E5
:1041D000D3E7000010B500224FF480710248FCF7CD
:1041E0003EFF002010BD00000008014013B54FF64F
:1041F000FF73012269460248FEF766F900981CBD6C
:10420000140300202DE9F041184C4FF48077394613
:104210002046FCF71FFF164DE61430B13946204604
:10422000FCF718FF012802D006E0002200E001227E
:1042300031462846FCF713FF4FF4007631462046FE
:10424000FCF708FF770030B131462046FCF702FF4B
:10425000012802D006E0002200E00122394628466B
:10426000FCF7FDFE0020BDE8F081000000100140D9
:10427000001C014070B50C4E80213046FCF7EAFE70
:104280000A4DB41430B180213046FCF7E3FE01281A
:1042900002D006E0002200E0012221462846FCF779
:1042A000DEFE002070BD000000100140001801403B
:1042B0000020704770B5184C80212046FCF7CAFEDC
:1042C0004FF0FF35012823D140212046FCF7C2FEE4
:1042D00001281DD120212046FCF7BCFE012817D162
:1042E00040212046FCF7B6FE012811D108212046C6
:1042F000FCF7B0FE01280BD104212046FCF7AAFEF2
:10430000012805D102212046FCF7A4FE012801D096
:10431000284670BD002070BD0020014010B504216A
:104320000648FCF797FE012804D101020022044848
:10433000FCF795FE4FF0FF3010BD0000002001405B
:104340000008014010B500224FF480710548FCF7C9
:1043500086FE00224FF400610348FCF780FE002037
:1043600010BD0000000801400020014010B5084CBD
:1043700040212046FCF76EFE012807D04021204650
:10438000FCF768FE10B9042000F0AAF9002010BD67
:104390000010014070B5154C4FF4004529462046E9
:1043A000FCF758FE38B90120FCF7FCFC29462046F2
:1043B000FCF750FE38B14FF4005529462046FCF773
:1043C00049FE10B109E001200BE00120FCF7EAFCF6
:1043D00029462046FCF73EFE10B14FF0FF3070BD7D
:1043E000022000F07DF9002070BD00000020014097
:1043F00008B5FDF7EFFAFFF73FF8FEF7E7FF2F48A4
:10440000416941F0010141614069002200F0010071
:10441000009011460E20FDF73BFB0E20FDF72AFB16
:10442000002211460F20FDF733FB0F20FDF722FB82
:10443000FEF792FF23482249234D00240160C0E982
:1044400001540E14C0E9034644618461C4610462EE
:10445000FCF7A2FF1B481D495430C0E9001560213C
:10446000C0E90241C0E904648461C4610462FCF7EC
:1044700093FFFEF7E1FF1748154901604FF4E13162
:10448000C0E901140C21C460C0E904418461C46125
:10449000FDF7F2FE012210490E48FDF78DFF0E498F
:1044A00008480122491C5430FDF74EFA4FF47A7443
:1044B00000F000FA2046FCF775FCF9E70010024016
:1044C0000054004014020020A08601000058004063
:1044D0000038014014030020030000200020704732
:1044E00010B500F54070EA3003D0012804D103A0D4
:1044F00000E00AA0FFF734F9002010BD4572726F8A
:104500007220646973706C61793A2043436E5F5026
:1045100057525F455252210D0A0000004572726FDA
:104520007220646973706C61793A2054454D505F14
:104530004F5645525F455252210D0A0000207047E8
:1045400070B5FCF7CDF90D4C0D4D6078552804D8A9
:1045500020212846FCF77EFD10B9142000F0C0F899
:104560006078692806D840212846FCF773FD08B119
:10457000002070BD4FF0FF3070BD00002D04002002
:10458000000C01402DE9FF4170200090012602241B
:10459000CDE90164DFF81081694640460394FCF7D9
:1045A0005DFC07200090CDE90164404D6946284636
:1045B0000394FCF753FC41F6F8100090CDE9016438
:1045C000694628460394FCF749FC00256020CDE9A4
:1045D0000005CDE9025469463548FCF73FFC3F2011
:1045E000CDE90005334FCDE9025469463846FCF762
:1045F00035FC4020CDE90005CDE902546946384636
:10460000FCF72CFC4FF47E50CDE90005CDE90254B7
:1046100069463846FCF722FC4FF42040CDE90005FE
:10462000254FCDE9025469463846FCF717FC4FF494
:104630009040CDE90006CDE9025469463846FCF7C2
:104640000DFCEE20CDE90005CDE90254694638465F
:10465000FCF704FC4FF47C60CDE90006CDE9025480
:1046600069461648FCF7FAFB4FF47040CDE90006A6
:10467000CDE9025469464046FCF7F0FB0C20CDE939
:104680000006CDE9025469464046FCF7E7FB4FF4CB
:104690007050CDE90006CDE9025469460848FCF7A0
:1046A000DDFBBDE8FF81000000180140000801406B
:1046B000000C01400010014000200140001C01409E
:1046C0000014014010B5FFF75DFFFEF743FE002028
:1046D00010BD10B5FFF7C6FC002010BD00207047CC
:1046E00070B504460E4DC00701D0012200E0002243
:1046F00040212846FCF7B3FCA00701D5012200E0C9
:10470000002220212846FCF7AAFC600701D50122DF
:1047100000E000222846BDE870401021FCF79FBC55
:10472000001801400020704710B5254C01220221DD
:104730002046FCF794FC0A20FCF734FB01221021F0
:104740002046FCF78CFC0A20FCF72CFB01222021E0
:104750002046FCF784FC0A20FCF724FB012211030D
:104760002046FCF77CFC0A20FCF71CFB01224021C0
:104770002046FCF774FC0A20FCF714FB0122D1024E
:104780002046FCF76CFC0A20FCF70CFB01220821F8
:104790002046FCF764FC0A20FCF704FB012211020E
:1047A0002046FCF75CFC9620FCF7FCFA01228021F5
:1047B0002046FCF754FC0A20FCF7F4FA002010BD58
:1047C0000008014010B5044604E005A0A26800F00E
:1047D00063F80C3421680029F7D1002010BD0000D7
:1047E00009252D3132732D2025730A0070B5174D20
:1047F0004FF48074002221462846FCF730FC01204B
:10480000FCF7D0FA012221462846FCF728FCA50136
:104810000F4C002229462046FCF721FC0120FCF722
:10482000C1FA012229462046FCF719FCE5140022B2
:1048300029462046FCF713FC0120FCF7B3FA0122BD
:1048400029462046FCF70BFC002070BD0008014003
:104850000020014010B503A108A000F013F80020CB
:1048600010BD0000564D452D53544D33322D563159
:104870002E30305F323030333130000025730D0A76
:10488000000000000FB410B503A90298FEF778FFEE
:1048900010BC5DF814FB00000FB410B503A902981A
:1048A000FEF76EFF02A0FEF75BFF10BC5DF814FB85
:1048B0000D0A0000464D00244FF0F00AA0460127E3
:1048C00085F800A005F108094FF0F10B2878F038C1
:1048D000062875D2DFE800F0030C2A3D745FFFF76D
:1048E000FDFDFFF7EFFEFFF729FE00286CD067E023
:1048F00038A0FEF735FF002610E0044640688047E8
:1049000010B185F800B00DE0A068804728B16FF4C1
:104910007A706860F520287004E0761C59F826004B
:104920000028EAD1B7424BD1F22032E0FFF7D6FEA1
:10493000002606E004462CA0FEF712FFE068804740
:10494000761C59F826000028F4D1474538D1F320C9
:104950001FE0E06A8047206B80471D48FBF704FF9B
:10496000804647452CD1002607E00446406A804730
:1049700010B185F800B004E0761C59F82600002834
:10498000F3D1B7421CD1FFF7DBFDC8B11A4868600C
:10499000F520287014E019A0FEF7E2FE002603E0DF
:1049A0000446806A8047761C59F826000028F7D113
:1049B0006868FFF795FDFFF7C1FD28B185F800A0F5
:1049C0002878FFF786FE81E785F800B0F8E7000059
:1049D0005C0000204D313A204D31205374617475D4
:1049E000732E0D0A000000004D323A20506F77659B
:1049F00072204F4E2E0D0A0016FCFFFF4D353A2057
:104A00004572726F72205374617475732E0D0A00B3
:104A1000000000000000000001020304060708096E
:104A2000000000000102030456455273696F6E00D6
:104A30002D205072696E742076657273696F6E00F6
:104A400043686970436F7265300000006C4A00086B
:104A50000000002084000000B0370008F04A000881
:104A600084000020DC070000C037000800000000C0
:104A7000000000000000000000000000284A0008BC
:104A800055480008304A00080000000000000000FF
:104A900000000000404A000845430008B5420008F5
:104AA0002947000895430008ED4700081D4300080A
:104AB000254700086D430008B1420008D5410008B1
:104AC00075420008054200080000000000000000D8
:104AD000280000200000000001000000100000007D
:104AE000000000000024F4000000000000000000AE
:0400000508000131BD
:00000001FF
